:100000000EC028C072C026C025C024C023C022C094
:1000100021C020C01FC01EC01DC01CC01BC0112499
:100020001FBECFE5D2E0DEBFCDBF10E0A0E6B0E05E
:10003000ECE7F4E002C005900D92A836B107D9F7BD
:1000400020E0A8E6B0E001C01D92A237B207E1F7B8
:10005000E3D012C2D5CFB39B03C000C00197D9F73C
:100060000895B39903C000C00197D9F70895BB9ACA
:10007000C3988DEA8A95F1F70000BB988DE58A95C3
:10008000F1F700000895BB9AC3988DE58A95F1F7C2
:100090000000BB988DEA8A95F1F700000895EF9271
:1000A000FF920F931F93CF93DF93C0E0D0E090E8CF
:1000B000E92EF12C082F10E0C7010C2E02C09595F7
:1000C00087950A94E2F780239123892B11F0DBDFD7
:1000D00001C0CDDF2196C830D10571F7DF91CF91F6
:1000E0001F910F91FF90EF9008951F920F920FB6FE
:1000F0000F9211242F933F934F935F936F937F93AE
:100100008F939F93AF93BF93EF93FF9366B3209129
:10011000680030916D00862F90E0AC010090600087
:1001200002C0559547950A94E2F74170552771E052
:1001300047274170432B40936D00262730E05091B4
:100140006600F901052E02C0F595E7950A94E2F7DD
:10015000E0FF22C0A0916900B0916A00FC0102C0DA
:10016000F595E7955A95E2F75E2F5170FC010090E6
:10017000640002C0F595E7950A94E2F7E1705E1716
:1001800019F04FEF5FEF02C041E050E04A0F5B1FF4
:1001900050936A004093690040917000042E02C0A1
:1001A000359527950A94E2F720FF20C0E0916B0077
:1001B000F0916C009C0102C0359527954A95E2F7B5
:1001C00021700090620002C0959587950A94E2F72D
:1001D0008170281719F08FEF9FEF02C081E090E047
:1001E0008E0F9F1F90936C0080936B00609368004C
:1001F00081E080936F00FF91EF91BF91AF919F914C
:100200008F917F916F915F914F913F912F910F90BF
:100210000FBE0F901F90189537B381E090E0AC01AE
:100220000090660002C0440F551F0A94E2F7242F85
:100230002095232327BB37B3AC010090620002C096
:10024000440F551F0A94E2F7242F2095232327BB40
:1002500037B3AC010090700002C0440F551F0A94E0
:10026000E2F7242F2095232327BB37B3AC0100905E
:10027000620002C0440F551F0A94E2F7242F209514
:10028000232327BB37B3AC010090600002C0440FAA
:10029000551F0A94E2F7242F2095232327BBBB98F0
:1002A00048B39C010090600002C0220F331F0A94E3
:1002B000E2F7242B28BB2BB720622BBF45B39C0150
:1002C0000090660002C0220F331F0A94E2F7242B2D
:1002D00025BB45B39C010090700002C0220F331F64
:1002E0000A94E2F7242B25BB25B30090600002C0DE
:1002F000880F991F0A94E2F7822B85BB789402E855
:1003000011E080916F00811102C0C0E039C0C0903F
:100310006E0088E893E19FDE892BB9F388EE93E0C5
:10032000A0DE0197843F914080F784E690E093DE61
:10033000F8E0DF2EC0E0D0E082E890E092DE7C01C1
:10034000882319F3992787DE8823F9F2CC0FDD1F64
:10035000902F9E19E81A9E1508F4C160DA94D11006
:10036000EBCFCC2051F0BB9AC39883EF91E001977B
:10037000F1F700C00000BB9803C080E991E071DE96
:100380008C2F82958F70833009F06EC0CF70CC3087
:1003900009F0B7CF80916F00882309F4B2CFF894A9
:1003A00080916D00811103C0C0E0D0E802C0C0E0C0
:1003B000D0E02091690030916A0040916B0050912B
:1003C0006C0010926F0010926D0010926C001092F1
:1003D0006B0010926A00109269007894220F331F0C
:1003E000440F551F2115310599F01CF460E070E0B1
:1003F00002C060E070E43195219531092F733327F5
:10040000322F2227CE01822B932BEC01C62BD72B28
:100410004115510591F0252F221F2227221F30E080
:1004200086E0220F331F8A95E1F7CA018F7399275F
:100430008C2B9D2BEC01C22BD32B87E691E00197EF
:10044000F1F700C00000BB9A1EDE8D2F28DE8C2F36
:1004500026DE0DDEBB988FE19EE40197F1F700C028
:10046000000010926E004DCF80916F00882309F438
:0C04700048CF10936E0045CFF894FFCFEA
:08047C0005000100040002006C
:00000001FF
